:060000000A128A110C280F
:10000800FE00030EF6000A08F7000A128A117E297C
:100018000A128A110F280A128A118E240A128A11CA
:10002800B3000A128A118F240A128A11B4000A1224
:100038008A1190240A128A11B500AB01AC01AD01F6
:10004800AE01AF01B001B101B201F901FA01FB0142
:10005800FC01FD0183010A128A1132283030FA00AE
:10006800403083120313AA000A128A1179240A1253
:100078008A110A128A1151230A128A110A128A1144
:100088003D240A128A110A128A116B230A128A1154
:100098000A128A1169240A128A110A128A11002383
:1000A8000A128A110A128A1187240A128A118B17D6
:1000B80002300A128A111B230A128A110A128A11A3
:1000C80080240A128A11003083120313A400A500A9
:1000D8000A128A1183230A128A110A128A11E1224A
:1000E8000A128A110A128A1103240A128A110A12A0
:1000F8008A1180240A128A110A128A115F240A12AC
:100108008A1183120313A9000A128A1149240A12B8
:100118008A1183120313A8003A307A06031D952822
:10012800962898284130FA005B307A06031D9D28EE
:100138009E28A0283030FA0028080319A428A528EA
:10014800B7287A080A128A1174220A128A11F4301E
:100158000A128A1136230A128A11013083120313F4
:10016800A7002708F907290A0319BB28BC28DC2897
:100178002A080A128A11AB230A128A110130831243
:100188000313A7002708AA0701300A128A11362389
:100198000A128A118312031329080A128A11992351
:1001A8000A128A1101300A128A1136230A128A1198
:1001B80027307902031CE128E228E328F901673097
:1001C800831203132A02031CEA28EB2880284030F4
:1001D800F90080280A128A110C2883120313A1003F
:1001E8004229831603130514831603170814652977
:1001F8008316031385148316031788146529831639
:1002080003130515831603170815652983160313A9
:100218008515831603178815652983160313851614
:100228008316031708166529831603130615831604
:100238000317091465298316031306158316031774
:100248008914652983160313861483160317091561
:10025800652983160313061683160317891565295E
:1002680083160313061483160317091665298316C4
:100278000313861683160317891665292108003A81
:100288000319F528013A0319FC28033A031903292D
:10029800013A03190A29073A031911290C3A0319D3
:1002A8001829013A03191F29033A03192629013A83
:1002B80003192D29073A03193429013A03193B294F
:1002C8007D29831203131F083F3980389F002108B6
:1002D800A000A00DA00D1F082006C33920069F000E
:1002E800831603139F17831203131F108316031318
:1002F8000C1308008B1E81298229C4290B1D85290E
:100308008629C4290230F0000030F1000A128A114F
:10031800E1230A128A11013083120313AB07031871
:10032800AC0A0030AC072C08803AF5003408803A53
:100338007502031DA12933082B02031CA429A52932
:10034800BF2979080A128A1121240A128A11203039
:100358000A128A1113240A128A117A080A128A11B7
:1003680013240A128A110130F5007508FA0783125E
:100378000313AB01AC019D308312031381000B11F1
:100388008B1DC729C829D7290B1CCB29CC29D729CC
:10039800831203130608F80078080A128A113E220D
:1003A8000A128A110B1077088A00760E8300FE0E57
:0403B8007E0E0900AC
:1004000002308A000408840A8207003406343C342F
:10041000043442347D349F346A3442345C34903442
:100420000134423460344D34BB3440345134EC3404
:1004300047343E34DE348D341F34BB3406343C3410
:1004400004344234C03459348B3442347434043468
:1004500044344234F9349B344F3441340034003452
:1004600080343F3441347434693476343434003465
:10047000543436344734303438340034F1007108A1
:10048000F00006300310F00CFF3E031D422A7008F6
:100490000139F2007208031D4E2A4F2A612A831285
:1004A00003133503031D552A562A612A7B08031DB1
:1004B0005A2A5B2A612A7D140130FB00FC01720874
:1004C000B5007203031D652A662A732A831203137B
:1004D0003508031D6C2A6D2A732A7D100130FB003C
:1004E000FC017208B500080083120313A0008F2AD4
:1004F000981C7B2A7C2A842A831603139812981648
:100500008312031318121816181D872A882A8E2A98
:100510001A08B10083160313981298166400831208
:1005200003130C1E942A952A782A200899003C303F
:10053000B20000000000B20B992A080083120313D6
:10054000A600B42A260884000A128A1100220A1280
:100550008A110A128A1199230A128A110130831210
:100560000313A5002508A607260884000A128A118D
:1005700000220A128A11003A031DBF2AC02AA22AA9
:100580000800043083120313A200FA30B200000006
:100590000000B20BC72A6400013083120313A202C9
:1005A000031DD32AD42AC52A0130A0020030031C1F
:1005B000A103A10220082104031DDF2AE02AC12A89
:1005C000080000300A128A11AB230A128A112D305A
:1005D0000A128A119E220A128A1101300A128A1105
:1005E00036230A128A1140300A128A11AB230A12EA
:1005F0008A1133300A128A119E220A128A110800C7
:1006000083160317091283160313061407108711A4
:1006100007168712831203130714941214128316F9
:10062000031314139413831203131408F0390138BD
:1006300094009416080083120313A2000430A30050
:10064000FA300A128A1136230A128A116400013024
:1006500083120313A302031D2E2B2F2B202B0130FB
:10066000A202031D342B352B1E2B0800831203130B
:10067000A0000430A100FA30B20000000000B20B6C
:100680003D2B6400013083120313A102031D492B8B
:100690004A2B3B2B0130A002031D4F2B502B392B33
:1006A000080083160317881083160313851083121E
:1006B00003138510E330A200220883160317880570
:1006C000081483160313051400300A128A11F1204E
:1006D0000A128A1108004030831603139900181576
:1006E00018128312031398171816981283160313FF
:1006F0000C128C121813831203131813831603138E
:10070000981298160800831203132408250403196D
:100710008A2B8B2B922B05300A128A11F3230A1293
:100720008A11982B06300A128A11F3230A128A11B1
:10073000080083120313A40012300A128A11F32353
:100740000A128A118312031324080A128A115524EB
:100750000A128A11080083120313A40011300A122E
:100760008A11F3230A128A118312031324080A122E
:100770008A1155240A128A11080083120313A0005B
:10078000941307102008930083160313141CC92B1D
:10079000CA2BC42B83120313071413080800F0009C
:1007A0008312031394130710700893008316031326
:1007B000141CDB2BDC2BD62B83120313071413081A
:1007C00008000130F2007208FC077108803A803C92
:1007D000031DEC2B70087C02031CEF2BF02BF22B7B
:1007E000FC01FB01080083120313A2004030A300A8
:1007F0002208A1002108A30423080A128A11BD239C
:100800000A128A110800831203138617F430A0001D
:100810000130A1000A128A11C1220A128A11831220
:10082000031386130800F40012300A128A112F24D1
:100830000A128A1174080A128A1171240A128A1182
:100840000800F40011300A128A112F240A128A11AA
:1008500074080A128A1171240A128A110800F2001F
:100860004030F3007208F1007108F30473080A12B3
:100870008A11CF230A128A110800831603138112EA
:100880008111073081049D308312031381008B1680
:10089000080083120313A0017D1C4F2C502C532CF5
:1008A0007D10A001A00A2008080083120313A100F4
:1008B00021080A128A11BD230A128A110800831224
:1008C00003138C1E642C652C672C1A08682CFF30CF
:1008D00008008316031381130617151716178B15B7
:1008E0000800F10071080A128A11CF230A128A1136
:1008F0000800831603130614831603170912080051
:1009000002300A128A11F3230A128A110800831690
:10091000031386138312031386130800583402341A
:020920000134A0
:08400000FF3FFF3FFF3FFF3FC0
:04400E00E32FFF3F5E
:00000001FF
