:060000000A128A110C280F
:10000800FE00030EF4000A08F5000A128A11CF292F
:100018000A128A110F28F70183120313B101B201E2
:1000280083010A128A1118280A128A111B220A123D
:100038008A110A128A1190210A128A110A128A1147
:10004800EC210A128A118B17831203133208B000AD
:100058003108AF00E830A0000330A1003008A30049
:100068002F08A2000A128A11D5200A128A118312B7
:1000780003132108A8002008A700E830A0000330D7
:10008800A1003008A3002F08A2000A128A111B2120
:100098000A128A11831203132108B0002008AF0046
:1000A8006430A0000030A1003008A3002F08A2008F
:1000B8000A128A11D5200A128A1183120313210801
:1000C800AA002008A9006430A0000030A100300870
:1000D800A3002F08A2000A128A111B210A128A11F2
:1000E800831203132108B0002008AF000A30A000D3
:1000F8000030A1003008A3002F08A2000A128A11BC
:10010800D5200A128A11831203132108AC00200893
:10011800AB000A30A0000030A1003008A3002F086F
:10012800A2000A128A111B210A128A1183120313D0
:100138002108AE002008AD002E08A2002D08A1005D
:10014800A3010A128A1157210A128A118312031372
:100158002C08A2002B08A100A301A30A0A128A11E5
:1001680057210A128A11831203132A08A2002908A8
:10017800A1000230A3000A128A1157210A128A111B
:10018800831203132808A2002708A1000330A30044
:100198000A128A1157210A128A1128280A128A116A
:1001A8000C2883120313A401A501200821040319B4
:1001B800DE28DF281629A601A60AED28013003103B
:1001C800A00DA10DFF3E031DE3280130F6007608BF
:1001D800A607A11FF028F128E22801300310A40D7A
:1001E800A50DFF3E031DF22821082302031DFE284A
:1001F80020082202031C0129022909292008A20239
:100208002108031CA303A302241401300310A10C2A
:10021800A00CFF3E031D0A290130A602031D152963
:100228001629F1282508A1002408A0000800831237
:100238000313200821040319222923295229A40180
:10024800A40A312901300310A00DA10DFF3E031DA2
:1002580027290130F6007608A407A11F342935297B
:10026800262921082302031D3B2920082202031CFA
:100278003E293F2945292008A2022108031CA3037F
:10028800A30201300310A10CA00CFF3E031D462958
:100298000130A402031D5129522935292308A10040
:1002A8002208A0000800F03083120313A4002408D9
:1002B80087052308031D61296229642907147B29FE
:1002C8002303031D682969296B2987147B290230B8
:1002D8002306031D70297129732907157B2903300B
:1002E8002306031D782979297B2987157B2921086D
:1002F8000A128A11B2210A128A1183120313860084
:10030800213083120313A5007530A400A40B8A2999
:10031800A50B8A298F290800831603130514831651
:1003280003170814831203139F171F13831603134D
:100338009F121F12C330831203139F0583160313E2
:100348009F17831203131F141030F600F60BAA2907
:10035800000083120313B101B201080083120313D2
:10036800A0006400831603178C18BB29BE298312CA
:100378000313B529831203132008831203178D0072
:100388003F30F6007608831603178C050C14831289
:1003980003170C0808008B1ED229D329E5290B1D49
:1003A800D629D729E5290A128A1106220A128A11A2
:1003B800710883120313B2007008B1009D308100E8
:1003C8000B1175088A00740E8300FE0E7E0E09005C
:1003D8008030F60076088316031386050710871009
:1003E800071187118316031709108910091189113C
:1003F8000912891283120313860107108710071147
:1004080087110800831203139F149F180C2A0D2AC2
:10041800092A1E08F300831603131E08F20083122C
:1004280003130C137308F1007208F0000800831618
:10043800031381128111073081049D308312031345
:0604480081008B16080084
:08400000FF3FFF3FFF3FFF3FC0
:04400E00F32FFF3F4E
:104200007E0030006D00790033005B005F007000BD
:104210007F007300FF00FF00FF00FF00FF00FF00B2
:00000001FF
