:060000000A128A11F72F1D
:100E3600C330F00070088316031386051430F000E3
:100E46007008831603178905C330F00070088312F3
:100E5600031386050800F0000430F100FA30FD00A7
:100E660000000000FD0B332F64000130F102031D6A
:100E76003D2F3E2F312F0130F002031D432F442F0B
:100E86002F2F0800F1006400831603178C184C2FCF
:100E96004D2F462F7108831203178D003F30F00047
:100EA6007008831603178C050C14831203170C089D
:100EB60008000A128A111B270A128A118B17F630AC
:100EC600F200FF30F3001E30F4000030F5000A1285
:100ED6008A1173270A128A11622F0A128A110028B0
:100EE600F02FF31F772F782F852F831203132108F6
:100EF600F8002008F700FF30A0070318A10AFF300A
:100F0600A107912F831203132108F8002008F70088
:100F16000130A0070318A10A0030A10777080A12BA
:100F26008A1145270A128A11F600F60DF60D83126C
:100F3600031306087606C33976068600F31FA42F28
:100F4600A52FAC2F0130F2070318F30A0030F30780
:100F5600B22FFF30F2070318F30AFF30F307210818
:100F6600803AFF0080307F02031DBB2F083020022D
:100F76000318BE2FBF2FD32F83120313A11BC42F19
:100F8600C52FCA2F2108FA002008F900CE2F0730F6
:100F9600F9000030FA007A08A1007908A000D72FDE
:100FA60083120313A001A101FB01FC01E62F01300E
:100FB6000A128A112E270A128A110130FB0703181A
:100FC600FC0A0030FC0775087C02031DEC2F740830
:100FD6007B02031CEF2FF02FDA2F72087304031D18
:100FE600F52FF62F742F0800FD0183120313A001BD
:0A0FF600A10183010A128A115C2F89
:08400000FF3FFF3FFF3FFF3FC0
:04400E00F32FFF3F4E
:10420000010003000200060004000C000800090081
:00000001FF
