:060000000A128A110E280D
:10000800FE00030EF8000A08F9007F08FA000A1239
:100018008A112F2A0A128A1111280A128A11B02568
:100028000A128A11D600C801C901CA01CB01CC0144
:10003800CD01CE01CF01D001D101D201D301D4012C
:10004800D501FD01FC0183010A128A11FF288312E0
:100058000313B9002F30B400EA2825303A060319F3
:10006800362837284128390884003A088313800045
:100078000130B1003108B907EA28B5010130AE07EF
:10008800FF302E0784000A128A1197220A128A1159
:10009800BA00003A0319FA28643A031957280D3AA6
:1000A80003195728EA283408840083130008B70086
:1000B800840A0008B8000230B1003108B407B81F3C
:1000C8006628672870280330B1003108B504B709DD
:1000D800B809B70A0319B80ABA01BA0A3A08B10046
:1000E8003107013E84000A128A1197220A128A11E6
:1000F800B2000A128A1197220A128A11B300330831
:100108003802031D89283208370203188C288D28E5
:100118008E2898280130B1003108BA0705303A0610
:10012800031D9728982872283508033903199D2834
:100138009E28A728390884002D30831380000130B9
:10014800B1003108B9073A08B600E1280A30A8001A
:100158000030A9003608B1003107013E84000A12B8
:100168008A1197220A128A11A0000A128A1197226C
:100178000A128A11A1003808A3003708A2000A123F
:100188008A11E2220A128A11831203132108AB0092
:100198002008AA000A128A1128230A128A11831237
:1001A80003132808303EBA00390884003A0883133C
:1001B80080000130B1003108B907FF30B1003108C3
:1001C800B607360A031DE928EA28AA280130AE072F
:1001D800FF302E0784000A128A1197220A128A1108
:1001E800BA003A08031DF928FA283128390884008A
:1001F8008313800108000A128A119B250A128A11AA
:100208000A128A1198240A128A110A128A115C2584
:100218000A128A110A128A11B2240A128A110A12BF
:100228008A1193250A128A110A128A1147240A127E
:100238008A110A128A11A9250A128A110A128A1128
:1002480089250A128A118B1701300A128A1118257A
:100258000A128A1102300A128A1162240A128A11B9
:100268000A128A11A2250A128A1100308312031376
:10027800A400A5000A128A11CA240A128A110A12B5
:100288008A11D6230A128A1102300A128A116224AC
:100298000A128A110A128A1168250A128A1183120F
:1002A8000313C700470803195A295B295F29CA01A4
:1002B800CB01CC01CD010A304A064B04031D652948
:1002C80066294E290A30A0000030A1004D08A3007D
:1002D8004C08A2000A128A11E2220A128A11831219
:1002E80003132108C6002008C5004330AE004608A5
:1002F800B0004508AF003B300A128A112B200A12C1
:100308008A110A128A11A2250A128A113B30831215
:100318000313A5000030A6000A128A11FF230A124F
:100328008A110A128A114C250A128A112030831266
:10033800031386064E290A128A110E288312031304
:10034800A100F32983160313051483160317081451
:10035800162A831603138514831603178814162A7E
:10036800831603130515831603170815162A831613
:1003780003138515831603178815162A8316031386
:100388008516831603170816162A831603130615EF
:10039800831603170914162A8316031306158316E2
:1003A80003178914162A8316031386148316031752
:1003B8000915162A831603130616831603178915BB
:1003C800162A831603130614831603170916162A0A
:1003D800831603138616831603178916162A21080F
:1003E800003A0319A629013A0319AD29033A03195A
:1003F800B429013A0319BB29073A0319C2290C3A4F
:100408000319C929013A0319D029033A0319D7292D
:10041800013A0319DE29073A0319E529013A0319B4
:10042800EC292E2A831203131F083F3980389F00B6
:100438002108A000A00DA00D1F082006C339200622
:100448009F00831603139F17831203131F1083162D
:1004580003130C1308008B1E322A332A712A0B1D32
:10046800362A372A712A0230F0000030F1000A12C9
:100478008A11E0240A128A11013083120313C80773
:100488000318C90A0030C9074908803AFF008030BC
:100498007F02031D512A32304802031C542A552A70
:1004A8006C2A83120313C801C9010A128A11742520
:1004B8000A128A11760883120313CC070318CD0A8F
:1004C8007708CD070130CA070318CB0A0030CB07DD
:1004D8009D308312031381000B118B1D742A752A1A
:1004E800842A0B1C782A792A842A83120313060883
:1004F800FB007B080A128A11A0230A128A110B102A
:100508007A08FF0079088A00780E8300FE0E7E0EB6
:100518000900FF1B972A83137F1883170008840A92
:100528000319FF0A080002308A000408840A8207B7
:100538000034013400340A34003464340034E834BC
:1005480003341034273406343C34043442347D34C4
:100558009F346A3442345C34903401344234603419
:100568004D34BB3440345134EC3447343E34DE34FB
:100578008D341F34BB3406343C3404344234C03424
:1005880059348B3442347434043444344234F934A6
:100598009B344F3441340034003480343F34413488
:1005A800743469347634343400345434363447344B
:1005B800303438340034253464340034831203135F
:1005C800A501A601200821040319EB2AEC2A232BF4
:1005D800A701A70AFA2A01300310A00DA10DFF3EBA
:1005E800031DF02A0130A4002408A707A11FFD2A33
:1005F800FE2AEF2A01300310A50DA60DFF3E031DAC
:10060800FF2A21082302031D0B2B20082202031CAA
:100618000E2B0F2B162B2008A2022108031CA30364
:10062800A302251401300310A10CA00CFF3E031DEA
:10063800172B0130A702031D222B232BFE2A260885
:10064800A1002508A0000800831203132808290424
:1006580003192F2B302B5F2BAD01AD0A3E2B013038
:100668000310A80DA90DFF3E031D342B0130AC006B
:100678002C08AD07A91F412B422B332B29082B022D
:10068800031D482B28082A02031C4B2B4C2B522BEA
:100698002808AA022908031CAB03AB020130031087
:1006A800A90CA80CFF3E031D532B0130AD02031DFE
:1006B8005E2B5F2B422B2B08A9002A08A8000800F4
:1006C800F50005307502031C6A2B6B2B712B083063
:1006D8007502031C702B712B772B0E307502031CCF
:1006E800762B772B7A2BF001F1019F2B7508F200FE
:1006F800F20DF20D831203131F087206C339720636
:100708009F001F140C13831603139E0183120313F7
:100718009E019F140C1F912B922B8E2B8316031373
:100728001E08F300831203131E08F4001F10740838
:10073800F1007308F0000800F1007108F0000630BD
:100748000310F00CFF3E031DA42B70080139F200C2
:100758007208031DB02BB12BC32B8312031356034E
:10076800031DB72BB82BC32B5408031DBC2BBD2B63
:10077800C32B7C140130D400FD017208D60072032B
:10078800031DC72BC82BD52B831203135608031D33
:10079800CE2BCF2BD52B7C100130D400FD01720855
:1007A800D600080000300A128A1106250A128A119A
:1007B800373083120313A5008030A6000A128A116D
:1007C800FF230A128A1101300A128A117D240A12A3
:1007D8008A1140300A128A1106250A128A113D3000
:1007E80083120313A5008030A6000A128A11FF2382
:1007F8000A128A110800162C2608FF002508840012
:100808000A128A118D220A128A110A128A11F424F4
:100818000A128A11013083120313A5070318A60AC6
:100828000030A607831203132608FF00250884005A
:100838000A128A118D220A128A11003A031D252CE8
:10084800262C002C0800043083120313A200FA306F
:10085800D50000000000D50B2D2C64000130831258
:100868000313A202031D392C3A2C2B2C0130A002B1
:100878000030031CA103A10220082104031D452CFC
:10088800462C272C08008316031709128316031316
:10089800061407108711071687128312031307140B
:1008A800941214128316031314139413831203134C
:1008B8001408F039013894009416080083120313C1
:1008C800A2000430A300FA300A128A117D240A1209
:1008D8008A116400013083120313A302031D752CCF
:1008E800762C672C0130A202031D7B2C7C2C652CF6
:1008F800080083120313A0000430A100FA30D500C9
:1009080000000000D50B842C64000130831203130F
:10091800A102031D902C912C822C0130A002031DF2
:10092800962C972C802C08008316031788108316A2
:1009380003138510831203138510E330A2002208E5
:10094800831603178805081483160313051400304B
:100958000A128A11A2210A128A110800403083164D
:1009680003139900181518128312031398171816F1
:100978009812831603130C128C1218138312031384
:10098800181383160313981298160800831203137A
:10099800240825040319D12CD22CD92C05300A128D
:1009A8008A113C250A128A11DF2C06300A128A1194
:1009B8003C250A128A1108000130F2007208FD076E
:1009C8007108803A803C031DEB2C70087D02031CE3
:1009D800EE2CEF2CF32CFD0183120313D401080035
:1009E80083120313A40012300A128A113C250A123A
:1009F8008A118312031324080A128A117F250A1206
:100A08008A11080083120313A40011300A128A11F4
:100A18003C250A128A118312031324080A128A1128
:100A28007F250A128A11080083120313A2002203E9
:100A3800031D1F2D202D282D851432300A128A11EE
:100A48007D240A128A11292D8510080083120313A8
:100A5800A000941307102008930083160313141C96
:100A6800362D372D312D8312031307141308080070
:100A780083120313A2004030A3002208A10021081A
:100A8800A30423080A128A112A250A128A110800C7
:100A98008312031386172C30A0000130A1000A121C
:100AA8008A1127240A128A11831203138613080055
:100AB8008316031381128111073081049D3083123C
:100AC800031381008B16080083120313A0017C1CFA
:100AD8006E2D6F2D722D7C10A001A00A2008080031
:100AE80000300A128A1164230A128A117108F70069
:100AF8007008F600080083120313A10021080A12E7
:100B08008A112A250A128A110800831603138612ED
:100B1800831603178912831203138612080083169B
:100B2800031381130617151716178B15080083165C
:100B380003130614831603170912080002300A1259
:100B48008A113C250A128A1108008316031386139A
:0A0B58008312031386130800013412
:08400000FF3FFF3FFF3FFF3FC0
:04400E00E32CFF3F61
:00000001FF
