:060000000A128A110C280F
:10000800FE00030EF3000A08F4000A128A11FE2CFF
:100018000A128A110F280A128A11EF270A128A1166
:10002800FB0083134B3084005B300A128A11D127FE
:100038000A128A11F601F701F801F901FA018301A0
:100048000A128A11342A0A128A1116240A128A11EB
:10005800831203132308D1000A128A112E250A12CB
:100068008A11831203132908C7002808C6003730ED
:10007800AE0051080139BF00C0013F08AF00400879
:10008800B000510C0139C100C2014108B100420859
:10009800B200510CC300430C0139C400C501440827
:1000A800B3004508B40052300A128A1160210A12BE
:1000B8008A1100300A128A110E270A128A11523048
:1000C80083120313A5000030A6000A128A11AF2577
:1000D8000A128A110230831203135106031D752870
:1000E8007628A1280030A000A1000A128A11FC2558
:1000F8000A128A11831203134708803AFF008130DD
:100108007F02031D8928E130460203188C288D28B8
:100118009428043083120313C8000030C9009A28B9
:10012800023083120313C8000030C90048080A12BD
:100138008A118A270A128A114129033051060319A4
:10014800A628A728AC285103031DAB28AC28D8281B
:100158000330A0000030A1000A128A11FC250A12FF
:100168008A11831203134708803AFF0080307F0208
:10017800031DC028293046020318C328C428CB28E9
:10018800043083120313C8000030C900D12801309D
:1001980083120313C8000030C90048080A128A11E4
:1001A8008A270A128A114129063051060319DD28C7
:1001B800DE28E42804305106031DE328E42810292A
:1001C8000230A0000030A1000A128A11FC250A1290
:1001D8008A11831203134708803AFF0080307F0298
:1001E800031DF828293046020318FB28FC28032998
:1001F800043083120313C8000030C90009290330F2
:1002080083120313C8000030C90048080A128A1173
:100218008A270A128A1141295108031D1429152910
:1002280041290330A0000030A1000A128A11FC25E0
:100238000A128A11831203134708803AFF0080309C
:100248007F02031D29292930460203182C292D294C
:100258003429043083120313C8000030C9003A2936
:10026800063083120313C8000030C90048080A1278
:100278008A118A270A128A1141290130831203132D
:10028800A0000030A1004708A3004608A2000A12F7
:100298008A1186250A128A11023083120313A000DC
:1002A8000030A1004708A3004608A2000A128A11DC
:1002B80086250A128A11080083120313BD002F3005
:1002C800B8001F2A25303E0603196B296C297629A8
:1002D8003D0884003E08831380000130B5003508CE
:1002E800BD071F2AB9010130AE07FF302E07840071
:1002F8000A128A117C230A128A11BE00003A0319D5
:100308002F2A643A03198C290D3A03198C291F2ABC
:100318003808840083130008BB00840A0008BC0066
:100328000230B5003508B807BC1F9B299C29A529B0
:100338000330B5003508B904BB09BC09BB0A031969
:10034800BC0ABE01BE0A3E08B5003507013E84005E
:100358000A128A117C230A128A11B6000A128A111B
:100368007C230A128A11B70037083C02031DBE29F4
:1003780036083B020318C129C229C329CD290130F7
:10038800B5003508BE0705303E06031DCC29CD292A
:10039800A729390803390319D229D329DC293D08AB
:1003A80084002D30831380000130B5003508BD0767
:1003B8003E08BA00162A0A30A8000030A9003A08F8
:1003C800B5003507013E84000A128A117C230A12FF
:1003D8008A11A0000A128A117C230A128A11A1002C
:1003E8003C08A3003B08A2000A128A11D0230A1273
:1003F8008A11831203132108AB002008AA000A12ED
:100408008A1154240A128A11831203132808303ED1
:10041800BE003D0884003E08831380000130B5000B
:100428003508BD07FF30B5003508BA073A0A031D7D
:100438001E2A1F2ADF290130AE07FF302E0784004D
:100448000A128A117C230A128A11BE003E08031D73
:100458002E2A2F2A66293D0884008313800108006C
:100468000A128A1138260A128A110A128A11F027EA
:100478000A128A110A128A11F1270A128A110A121B
:100488008A11A3260A128A110A128A11E1270A126E
:100498008A110A128A1189260A128A110A128A11E5
:1004A800A5270A128A110A128A11BC260A128A1171
:1004B8000A128A11D7250A128A110A128A11D92713
:1004C8000A128A110A128A11F0270A128A118B1746
:1004D80001300A128A11EA260A128A1102300A1217
:1004E8008A1153260A128A110A128A11E8270A1257
:1004F8008A11003083120313A400A5000A128A117E
:10050800D4260A128A110A128A115D250A128A1142
:100518000A128A11E8270A128A110A128A11B127C7
:100528000A128A1183120313CA004A0803199D2A62
:100538009E2AA42A0130CB070318CC0A0030CC0726
:100548004B18A72AA82AAE2A0A128A1127200A12AB
:100558008A11912A4B1CB12AB22A912A4C08803A56
:10056800FF0080307F02031DBB2A01304B02031CB1
:10057800BE2ABF2A912A013083120313A00000303B
:10058800A1000030A200A3000A128A1186250A12CF
:100598008A11023083120313A0000030A10000303A
:1005A800A200A3000A128A1186250A128A110030B5
:1005B8000A128A118A270A128A11912A0A128A11A2
:1005C8000C2883120313A100362B8316031305147A
:1005D800831603170814592B8316031385148316DF
:1005E80003178814592B831603130515831603174D
:1005F8000815592B831603138515831603178815B9
:10060800592B831603138516831603170816592BBF
:10061800831603130615831603170914592B83161B
:1006280003130615831603178914592B831603130E
:100638008614831603170915592B831603130616F8
:10064800831603178915592B83160313061483166B
:1006580003170916592B83160313861683160317D7
:100668008916592B2108003A0319E92A013A031976
:10067800F02A033A0319F72A013A0319FE2A073A1E
:100688000319052B0C3A03190C2B013A0319132BE8
:10069800033A03191A2B013A0319212B073A0319B4
:1006A800282B013A03192F2B712B831203131F08D0
:1006B8003F3980389F002108A000A00DA00D1F0819
:1006C8002006C33920069F00831603139F17831241
:1006D80003131F10831603130C130800FF1B7C2B36
:1006E80083137F1883170008840A0319FF0A080078
:1006F80003308A000408840A820700340134003475
:100708000A34003464340034E834033410342734B1
:1007180006343C34043442347D349F346A344234E1
:100728005C3490340134423460344D34BB3440344A
:100738005134EC3447343E34DE348D341F34BB340A
:1007480006343C3404344234C03459348B34423493
:100758007434043444344234F9349B344F344134CF
:100768000034003480343F344C343A342034253457
:1007780064342D34253464342D3425346434003401
:10078800413474346934763434340034543436346F
:10079800473430343834003483120313A601A701D8
:1007A800200821040319D92BDA2B112CA501A50A3D
:1007B800E82B01300310A00DA10DFF3E031DDE2B19
:1007C8000130A4002408A507A11FEB2BEC2BDD2B7F
:1007D80001300310A60DA70DFF3E031DED2B2108C8
:1007E8002302031DF92B20082202031CFC2BFD2BDE
:1007F800042C2008A2022108031CA303A302261428
:1008080001300310A10CA00CFF3E031D052C013084
:10081800A502031D102C112CEC2B2708A10026087B
:10082800A0000800E33083120313A50025088316EF
:10083800031385051C3083120313A50025088504BE
:100848006430F90000000000F90B262C1C308312DC
:100858000313A5002508831603138504203083128B
:100868000313A0000330A1000A128A111C260A12E1
:100878008A11831203130508A50002300310A50C82
:10088800FF3E031D422C25080739A600A7012608AC
:10089800A8002708A9002908A4002808A300080020
:1008A800831203132808290403195B2C5C2C8B2C56
:1008B800AD01AD0A6A2C01300310A80DA90DFF3E49
:1008C800031D602C0130AC002C08AD07A91F6D2C4E
:1008D8006E2C5F2C29082B02031D742C28082A0271
:1008E800031C772C782C7E2C2808AA022908031CC4
:1008F800AB03AB0201300310A90CA80CFF3E031D8B
:100908007F2C0130AD02031D8A2C8B2C6E2C2B08FA
:10091800A9002A08A800080083120313A5000530BF
:100928002502031C982C992C9F2C08302502031CA7
:100938009E2C9F2CA52C0E302502031CA42CA52C24
:10094800A82CA001A101CB2C2508A200A20DA20D64
:100958001F082206C33922069F001F140C13831692
:1009680003139E01831203139E019F140C1FBD2CB9
:10097800BE2CBA2C831603131E0883120313A3007C
:100988001E08A4001F102408A1002308A0000800C6
:10099800F1007108F00006300310F00CFF3E031D53
:1009A800D02C70080139F2007208031DDC2CDD2CF4
:1009B800ED2C7B03031DE12CE22CED2C7708031DA5
:1009C800E62CE72CED2C7A140130F700F8017208B8
:1009D800FB007203031DF12CF22CFD2C7B08031D78
:1009E800F62CF72CFD2C7A100130F700F80172086C
:1009F800FB0008008B1E012D022D142D0B1D052D4B
:100A0800062D142D0230F0000030F1000A128A1170
:100A180068270A128A119D308312031381000B1173
:100A28008B1D172D182D272D0B1C1B2D1C2D272D2D
:100A3800831203130608F50075080A128A11CC24DC
:100A48000A128A110B1074088A00730E8300FE0EB6
:100A58007E0E09000A128A1198270A128A11831237
:100A680003132708AF002608AE00AC01AD012F081C
:100A7800803AFF0081307F02031D442DE0302E02B2
:100A88000318472D482D562DE03083120313AA0072
:100A98000130AB002E082A02AC002F08031C2F0AD5
:100AA8002B02AD00831203132D08A9002C08A800FF
:100AB800080000300A128A110E270A128A114330E0
:100AC80083120313A5008030A6000A128A11AF25ED
:100AD8000A128A1101300A128A116E260A128A1124
:100AE80040300A128A110E270A128A1149308312DD
:100AF8000313A5008030A6000A128A11AF250A1236
:100B08008A1108008312031320032104031D8D2D6D
:100B18008E2D9B2D2308A5002208A400250DA50CC9
:100B2800A40C250DA50CA40C24089500AE2D0230AC
:100B380020062104031DA12DA22DAE2D2308A500FA
:100B48002208A400250DA50CA40C250DA50CA40CA9
:100B580024089B000800C62D2608FF0025088400ED
:100B68000A128A1172230A128A110A128A11FC26A1
:100B78000A128A11013083120313A5070318A60A63
:100B88000030A607831203132608FF0025088400F7
:100B98000A128A1172230A128A11003A031DD52DEE
:100BA800D62DB02D08008316031307158714FF30C0
:100BB80092003F308312031397051708F0390C3859
:100BC80097009501CF3097051D08F0390C389D0026
:100BD8009B011D129D128C10FC30920512158C1C65
:100BE800F62DF72DF32D8316031307118710080030
:100BF800092E851605171B2E851605131B2E851223
:100C080005171B2E851205131B2E831203132108AB
:100C1800003A0319102E062E2008013A0319FD2D5B
:100C2800033A0319002E013A0319032E062E080071
:100C3800831203132108A2002A2E0130A202FD30DC
:100C4800F90000000000F90B252E6400831203133D
:100C58002208031D302E312E212E2008F900000015
:100C68000000F90B332E08008316031709128316A8
:100C7800031306140710871107168712831203132C
:100C88000714941214128316031314139413831263
:100C980003131408F03901389400941608008312DD
:100CA8000313A2000430A300FA300A128A116E2638
:100CB8000A128A116400013083120313A302031D70
:100CC800662E672E582E0130A202031D6C2E6D2E43
:100CD800562E080083120313A0000430A100FA3036
:100CE800F90000000000F90B752E64000130831232
:100CF8000313A102031D812E822E732E0130A00240
:100D0800031D872E882E712E08008316031788105E
:100D1800831603138510831203138510E330A20092
:100D2800220883160317880508148316031305146D
:100D380000300A128A11E5220A128A110800A1302D
:100D48000A128A11C7270A128A1107300A128A1151
:100D580044270A128A1103300A128A1132270A120A
:100D68008A1100300A128A1120270A128A110800F3
:100D780040308316031399001815181283120313B1
:100D8800981718169812831603130C128C1218133E
:100D98008312031318138316031398129816080066
:100DA80083120313240825040319DB2EDC2EE32EFB
:100DB80005300A128A117A270A128A11E92E06309A
:100DC8000A128A117A270A128A1108008312031359
:100DD800A2002203031DF12EF22EFA2E85143230C2
:100DE8000A128A116E260A128A11FB2E8510080033
:100DF80083120313A40012300A128A117A270A12E6
:100E08008A118312031324080A128A11BD270A12B1
:100E18008A11080083120313A40011300A128A11E0
:100E28007A270A128A118312031324080A128A11D4
:100E3800BD270A128A11080083120313A200AA30E0
:100E48000A128A11C7270A128A1183120313220869
:100E58000A128A11C7270A128A110800831203137B
:100E6800A200A6300A128A11C7270A128A11831211
:100E7800031322080A128A11C7270A128A110800C6
:100E880083120313A200A8300A128A11C7270A1274
:100E98008A118312031322080A128A11C7270A1219
:100EA8008A11080083120313A00094130710200866
:100EB800930083160313141C622F632F5D2F831274
:100EC80003130714130808000130F2007208F8072A
:100ED8007108803A803C031D732F70087802031C48
:100EE800762F772F792FF801F70108008312031363
:100EF800A2004030A3002208A1002108A30423086F
:100F08000A128A1156270A128A110800831203133B
:100F1800A10021080739203EA20022080A128A11DE
:100F280056270A128A11080000300A128A119024E2
:100F38000A128A11831203132108A7002008A600A9
:100F480008008316031381128111073081049D3034
:100F58008312031381008B16080083120313A00168
:100F68007A1CB72FB82FBB2F7A10A001A00A20082F
:100F7800080083120313A10021080A128A115627B8
:100F88000A128A11080083120313A10021080A1209
:100F98008A1156270A128A11080064008001840AFF
:100FA8000406031900340406D22F83160313811391
:100FB8000617151716178B15080083160313061442
:100FC800831603170912080002300A128A117A27B9
:0C0FD8000A128A11080001340800080009
:08400000FF3FFF3FFF3FFF3FC0
:04400E00E32FFF3F5E
:00000001FF
